:100000000C944F040C9477040C9477040C947704AC
:100010000C9477040C9477040C9477040C94770474
:100020000C9477040C9477040C9404100C947610C0
:100030000C9477040C9477040C9477040C94770454
:100040000C9477040C9477040C9477040C94770444
:100050000C9477040C9477040C9477040C945F153B
:100060000C9477040C9477040C9477040C94770424
:100070000C9477040C9477040C9477040C94770414
:100080000C94A9150C9477040C9477040C947704C1
:100090000C9477040C9477040C9477040C947704F4
:1000A0000C9477040C9477040C947704F0F89C8EED
:1000B0008783878E9CF8F00000FEFF030303030391
:1000C000070EFCF80000FEFF0303030303070EFC0A
:1000D000F80000FFFF00000000000000FFFF00002C
:1000E000FEFF8383838383C7EE7C380000F8FC0E19
:1000F00007030303070EFCF800003F7FE0C0808089
:10010000C0E07F3FFFFF01010101010101FFFF008E
:1001100000FFFF0C0C0C0C1C3E77E3C100007FFFBE
:10012000C0C0C0C0C0E0703F1F00001F3F70E0C0F3
:10013000C0C0E0703F1F00007FFFC1C1C1C1C1E36B
:10014000773E1C00001F3F70E0C0C0C0E0703F1F42
:10015000000000000001FFFF01000000D5F08D1439
:10016000A1C881CFD9F1AF20004361746572706975
:100170006C6C6172210048756E67727900282800E6
:10018000000000000000000000000000000000006F
:10019000000000000000000000000000000000B0AF
:1001A000F0E0C0800000000000000000000000003F
:1001B00080C0E0E0F0F0F8FCFEFFFFFFFFFFFEFE76
:1001C000FEFEFEFC7E7F7F7F7F7F3F1F00000000E2
:1001D00060301C0E060EA4E7C7CFFFFFFFFFFFFF36
:1001E000FFFFFFFFFFFFFFFDC9C1ED8C0E060606F6
:1001F0000C180000000000000000000000003FFF9D
:10020000CF0D181E3E7D7F7F6F5F5F6F7F7F3D1E2E
:100210000E88FD3F0000000000000000000000000C
:1002200000000000000000000103070E0C1C18185D
:1002300018181818180C0E07030100000000000021
:10024000000000000000000808004A201440124886
:1002500000504155534544000A5072657373204164
:1002600020746F2072652D7374617274000A48697E
:100270002D53636F72653A2000596F752053636F79
:100280007265643A200047616D65204F7665722182
:100290000A000A0A41202D205374617274204C65B3
:1002A00076656C203200426F6E7573203530207099
:1002B0006F696E747321004C6576656C2032200A7C
:1002C0000020202020486967683A0053636F7265F8
:1002D0003A000A616E6420736C6F77732043617417
:1002E000657270696C6C6172000A426F6E75732082
:1002F0006361626261676520736872696E6B730027
:100300000A000A41202D2053746172742F506175C8
:1003100073652047616D65000A55502F44574E2084
:100320002D206368616E6765206D6F646500080B42
:10033000000202020100090400000102020000059F
:1003400024001001052401010104240206052406ED
:1003500000010705810310004009040100020A00A2
:10036000000007050202400000070583024000006C
:100370000403090412010002EF0201404123368008
:1003800000010102030141726475696E6F204C4CDB
:10039000430041726475626F790000000000003E06
:1003A0005B4F5B3E3E6B4F6B3E1C3E7C3E1C183CE5
:1003B0007E3C181C577D571C1C5E7F5E1C00183C41
:1003C0001800FFE7C3E7FF0018241800FFE7DBE78A
:1003D000FF30483A060E2629792926407F05050771
:1003E000407F05253F5A3CE73C5A7F3E1C1C0808CD
:1003F0001C1C3E7F14227F22145F5F005F5F060992
:100400007F017F006689956A606060606094A2FFEA
:10041000A29408047E040810207E201008082A1CDC
:1004200008081C2A08081E101010100C1E0C1E0CA8
:1004300030383E3830060E3E0E0600000000000048
:10044000005F00000007000700147F147F14242AB7
:100450007F2A122313086462364956205000080789
:100460000300001C2241000041221C002A1C7F1CAA
:100470002A08083E080800807030000808080808AC
:10048000000060600020100804023E5149453E0013
:10049000427F400072494949462141494D33181471
:1004A000127F1027454545393C4A494931412111C0
:1004B00009073649494936464949291E00001400B2
:1004C00000004034000000081422411414141414D5
:1004D000004122140802015909063E415D594E7C33
:1004E0001211127C7F494949363E414141227F41E8
:1004F00041413E7F494949417F090909013E414146
:1005000051737F0808087F00417F41002040413F30
:10051000017F081422417F404040407F021C027F3F
:100520007F0408107F3E4141413E7F090909063E94
:100530004151215E7F091929462649494932030163
:100540007F01033F4040403F1F2040201F3F403875
:10055000403F631408146303047804036159494D50
:1005600043007F4141410204081020004141417F86
:1005700004020102044040404040000307080020FC
:10058000545478407F2844443838444444283844FC
:1005900044287F385454541800087E090218A4A433
:1005A0009C787F0804047800447D40002040403D52
:1005B000007F1028440000417F40007C04780478CC
:1005C0007C080404783844444438FC18242418185F
:1005D000242418FC7C0804040848545454240404BB
:1005E0003F44243C4040207C1C2040201C3C4030A8
:1005F000403C44281028444C9090907C4464544CD7
:100600004400083641000000770000004136080031
:1006100002010204023C2623263C1EA1A161123ADB
:100620004040207A38545455592155557941215428
:10063000547841215554784020545579400C1E522D
:1006400072123955555559395454545939555454D1
:10065000580000457C410002457D420001457C4038
:10066000F0292429F0F0282528F07C545545002055
:1006700054547C547C0A097F4932494949323248F2
:10068000484832324A4848303A4141217A3A424059
:100690002078009DA0A07D39444444393D4040402D
:1006A0003D3C24FF2424487E4943662B2FFC2F2BFE
:1006B000FF0929F620C0887E09032054547941009F
:1006C00000447D413048484A32384040227A007A1E
:1006D0000A0A727D0D19317D2629292F28262929FC
:1006E000292630484D40203808080808080808081E
:1006F000382F10C8ACBA2F102834FA00007B000045
:1007000008142A142222142A14089500220095AAFB
:10071000005500AAAA55AA55AA000000FF00101013
:1007200010FF00141414FF001010FF00FF1010F051
:1007300010F0141414FC001414F700FF0000FF0064
:10074000FF1414F404FC141417101F10101F101FB2
:100750001414141F00101010F0000000001F1010DF
:1007600010101F10101010F010000000FF101010DB
:10077000101010101010FF10000000FF140000FFF8
:1007800000FF00001F10170000FC04F414141710E1
:10079000171414F404F40000FF00F71414141414D4
:1007A0001414F700F7141414171410101F101F144A
:1007B0001414F4141010F010F000001F101F0000AB
:1007C000001F14000000FC140000F010F01010FFD7
:1007D00010FF141414FF141010101F00000000F07C
:1007E00010FFFFFFFFFFF0F0F0F0F0FFFFFF000051
:1007F000000000FFFF0F0F0F0F0F38444438447CF8
:100800002A2A3E147E02020606027E027E026355FA
:100810004941633844443C04407E201E2006027E49
:10082000020299A5E7A5991C2A492A1C4C7201725B
:100830004C304A4D4D303048784830BC625A463DC5
:100840003E494949007E0101017E2A2A2A2A2A447A
:10085000445F444440514A444040444A51400000AF
:10086000FF0103E080FF000008086B6B08361236BA
:100870002436060F090F060000181800000010109B
:10088000003040FF0101001F01011E00191D171259
:10089000003C3C3C3C0000000000C21AB01A11248D
:1008A0001FBECFEFDAE0DEBFCDBF11E0A0E0B1E0C8
:1008B000E8EFFCE302C005900D92A837B107D9F725
:1008C00026E0A8E7B1E001C01D92A436B207E1F727
:1008D00014E0CEE4D4E004C02197FE010E94541C31
:1008E000CD34D107C9F70E94CA190C946F1E0C941D
:1008F00000002F923F924F925F926F927F928F9261
:100900009F92AF92BF92CF92DF92EF92FF920F939E
:100910001F93CF93DF9300D000D0CDB7DEB781EC2B
:1009200080937C0085B1806F85B984B1877E84B95E
:1009300084B1876E84B95E9A5F988AB1806D8AB9F6
:10094000769A6E9881B3806F81BB899880B38D70E1
:1009500080BB80E58CBD81E08DBD85E090E00E948C
:1009600033165F9A85E090E00E9433165E985C989B
:10097000ECE5F1E08DE08E0F94919EBD00000DB48A
:1009800007FEFDCF31968E13F7CF5C9A81E88093F6
:1009900064008091650081608093650080E00E9422
:1009A000B7180E94381687FF24C05C9885EA8EBD70
:1009B00000000DB407FEFDCF5C9A2E982F982D985D
:1009C0008091640080628093640081E083BF889599
:1009D00013BEFCCF2D980E9438168478843871F0AD
:1009E0000E9438168471843131F188EC90E00E94C5
:1009F00033160E94381682FDEDCF3AC00E943116A0
:100A000088EC90E00E9433162F9882E090E00E94DC
:100A10007C1B8F3F29F06FEF82E090E00E94841BE7
:100A200084EF91E00E9433162F9A0E943816847842
:100A30008438D9F3D5CF0E94311688EC90E00E941B
:100A400033162E9882E090E00E947C1B882329F0C8
:100A500060E082E090E00E94841B84EF91E00E94BD
:100A600033162E9A0E94381684718431D9F3BDCF83
:100A70000E94311682E090E00E947C1B882319F0CE
:100A80000E94451602C00E94401681E090E00E943C
:100A90004B1681FF91C082FB552450F882FD2E98A1
:100AA00000EF1FEF68E0A62EB12C0E94381686FFDB
:100AB00004C02E9A2F9A2D9A7FC0552029F0043019
:100AC000110511F42E9A2F9881E00E94B718980111
:100AD00017FF04C022273327201B310B2770332731
:100AE000C80117FD079653E0959587955A95E1F74C
:100AF00017FF05C00197A501421B530B9A017C010A
:100B0000F694FE2CEE24F794E79460E070E0350153
:100B1000621A730AF701E058FF4F4F018F3FFFEF52
:100B20009F0744F40196685A7F4F7401603B71053A
:100B300089F721C0D701A759BD4F40E050E08F3F52
:100B4000EFEF9E0709F464C1FA01E60FF71FE455C1
:100B5000FF4FE4916D01C818D908CE0CDF1CF0E0FE
:100B60001F01022E01C0220C0A94EAF7F601408010
:100B7000242820824DC180E00E94B7188FE090E0C9
:100B80000E9433160F5F1F4F0931110509F08DCFF9
:100B9000552011F02F9A2D9880E991E00E9433168C
:100BA0000E943116E091FD05F091FE050190F08163
:100BB000E02D8DEF95E0099582E390E00E943316D9
:100BC0000E9438168111F8CF0E941E196BE471E063
:100BD0008BEE95E00E94241481110E9445166091CD
:100BE000040170910501772788EE93E00E94401C74
:100BF0006093040610929701109296011092990149
:100C00001092980181E090E090930101809300019F
:100C10000E94E71862E470E080E090E00E94DC143B
:100C2000DC01CB010A96A11DB11D9093790180933F
:100C3000780166E170E080E090E00E94DC14DC0165
:100C4000CB014C96A11DB11D90937B0180937A013D
:100C500022E030E030937D0120937C012091F50566
:100C60003091F605232B21F01092F6051092F50530
:100C700020917801309179013A8329839C838B8379
:100C8000CE0101960E94A31820917A0130917B0138
:100C9000809178019091790104979A8389833C83AC
:100CA0002B83CE0101960E94A31820917A013091E6
:100CB0007B01809178019091790108979A838983CB
:100CC0003C832B83CE0101960E94A31894E8E92E61
:100CD00091E0F92E00E010E024E0D22E6CE670E006
:100CE00080E090E00E94DC144B015C0166E270E061
:100CF00080E090E00E94DC14FAE08F0E911CA11CB1
:100D0000B11CF70191828082DC01CB014096A11DCC
:100D1000B11D93838283F801EC57FE4F84E0B82E17
:100D2000D482D582F6E0EF0EF11C0A5F1F4F02312C
:100D30001105A1F66CE670E080E090E00E94DC1402
:100D40006B017C0166E270E080E090E00E94DC14C0
:100D50002AE0C20ED11CE11CF11CD0927F01C0928E
:100D60007E01DC01CB014096A11DB11D9093810154
:100D700080938001B0928201B09283014DE751E0EF
:100D800060E070E08CE290E00E944B178AE290E015
:100D9000909309068093080690930B0680930A06A9
:100DA00086E791E00E94C61880E290E090930906E1
:100DB0008093080684E390E090930B0680930A06E4
:100DC00089E691E00E94C61880E00E94B71860EDA5
:100DD00077E080E090E00E94251510929B01109230
:100DE0009A010F900F900F900F90DF91CF911F916C
:100DF0000F91FF90EF90DF90CF90BF90AF909F90BA
:100E00008F907F906F905F904F903F902F900895BC
:100E10002115310581F0FA01E60FF71FE455FF4F68
:100E2000E491F0E0062C02C0F595E7950A94E2F70C
:100E3000DC90ED29EC934F5F5F4F119648355105DB
:100E400009F07DCE6FCE2F923F924F925F926F92BC
:100E50007F928F929F92AF92BF92CF92DF92EF924A
:100E6000FF920F931F93CF93DF93CDB7DEB72C97ED
:100E70000FB6F894DEBF0FBECDBF11E01093A601F0
:100E80008FB7F8944091BE015091BF016091C001AD
:100E90007091C1018FBF80910506242F281B822FDE
:100EA00090910606992329F02093070610920606D2
:100EB0002DC690910406291740F48F5F891708F01A
:100EC00025C613BF889513BE21C61093060640930E
:100ED0000506809100069091010601969093010607
:100EE000809300060E941E198091020680930306DB
:100EF0000E94381680930206C0909A01D0909B0100
:100F000042E0C416D10409F440C44CF4C114D10425
:100F100089F091E0C916D10409F4EEC091C4A3E0B0
:100F2000CA16D10409F477C4B4E0CB16D10409F48D
:100F30006CC386C4109209061092080610920B0624
:100F400010920A066EE571E0CE0101960E94A1148E
:100F500065EE75E0CE0101960E944314FC014481C8
:100F600055816081718189EF95E00E94B31289817A
:100F70009A810E94EF1C88E193E00E94C6186AE6FD
:100F800071E0CE0101960E94A1146BEE75E0CE01D6
:100F900001960E944314DC0114964D915C911597C3
:100FA0006D917C9189EF95E00E94B31289819A81BD
:100FB0000E94EF1C80919801909199010196909365
:100FC00099018093980149971CF482E093E002C054
:100FD00080E093E00E94C618809198019091990159
:100FE000839724F0109299011092980189EE92E073
:100FF0000E94C61882ED92E00E94C61880E80E9406
:101000003119811105C080E10E943119882371F0E6
:1010100063E571E085EE95E00E942414811114C40B
:1010200063E571E085EE95E00E94751484E00E940E
:1010300031198823D1F06AE571E08BEE95E00E94CA
:101040002414811103C06AE571E002C06BE471E011
:101050008BEE95E00E9475148091BD01882319F0F4
:101060000E94401602C00E94451688E00E94311975
:10107000882309F4E5C363E571E085EE95E00E94FD
:1010800024148823A9F08091060190910701909380
:1010900005018093040165E070E080E090E00E942B
:1010A000DC14615F7F4F7093A5016093A40121C0A0
:1010B00080910201909103019093050180930401B6
:1010C00065E070E080E090E00E94DC14675F7F4F95
:1010D0007093A5016093A4012091F5053091F60568
:1010E000C90101978217930720F49093F605809326
:1010F000F50581E090E084C26091040170910501E2
:10110000772788EE93E00E94401C609304061092BB
:1011100009061092080610920B0610920A068BEC34
:1011200092E00E94C61880919601909197010E94CA
:10113000740F81EC92E00E94C6188091A2019091F8
:10114000A3010E94740FE0910001F0910101FA8760
:10115000E987329731F0A4E84A2EA1E05A2E120115
:1011600034C008E010E047E452E0B80180E090E0CD
:101170000E944B1747E452E0B80188E790E00E94D4
:101180004B17085F1F4F0034110569F700E010E0AE
:1011900047E452E068E070E0C8010E944B1747E462
:1011A00052E068E370E0C8010E944B17085F1F4FD0
:1011B0000038110569F7CFCFA6E02A0E311CB6E939
:1011C0002B16B1E03B0609F47FC0D10112960D91B8
:1011D0001C911397ED90FC90B8016E5F7F4F41E03A
:1011E000C7010E944D16B8016250710941E0C70164
:1011F0000E944D1641E0B801C70102960E944D16AB
:1012000041E0B801C70102970E944D1688248394DB
:10121000912CF2E0AF2EB12C3501600E711E41E031
:10122000B30194012E0D3F1DC9012B873C870E94FD
:101230004D1641E0B301F701E819F909F887EF838A
:10124000CF010E944D1638016A187B0841E0B301B6
:101250002B853C85C9010E944D1641E0B3018F8169
:1012600098850E944D1695012E0D3F1D41E03401D9
:10127000600E711EB301C9012B873C870E944D1679
:10128000C7018A199B0998878F8341E0B3010E94A7
:101290004D1641E0380168187908B3012B853C856B
:1012A000C9010E944D1641E0B3018F8198850E94CB
:1012B0004D16AA94AB2809F47FCFBFEF8B1A9B0A77
:1012C000AA24A394B12CA8CF6985660FE9856E0F77
:1012D0006195635A70E080910006909101060E942A
:1012E0002C1C892B29F56CE670E080E090E00E94D0
:1012F000DC144B015C0166E270E080E090E00E944B
:10130000DC14FAE08F0E911CA11CB11C90927F019D
:1013100080927E01DC01CB014096A11DB11D90930E
:1013200081018093800184E0809382018093830116
:101330002091F5053091F6058091A4019091A501C9
:101340002817390750F060918001709181018091D8
:101350007E0190917F010E94AA0F80E20E943119C4
:10136000811175C20E94381685FD71C280E40E9409
:101370003119811173C20E94381686FD6FC280E850
:101380000E943119811171C20E94381687FD6DC209
:1013900080E10E94311981116DC20E94381684FDCE
:1013A00069C2809100069091010663E070E00E949E
:1013B0002C1C5C01892B09F080C080917C019091EC
:1013C0007D0181309105A1F044F4892B21F58091B4
:1013D0007A0190917B01049710C08230910591F0C1
:1013E0000397C9F4809178019091790104970FC017
:1013F00080917A0190917B01049690937B01809378
:101400007A0109C0809178019091790104969093B6
:10141000790180937801E0919C01F0919D016091A8
:101420009E0170919F018091A0017F01E80EF11C47
:101430008091A1018B01080F111D80E090E0D20185
:101440004D915C91119712962D913C911397DC016F
:10145000AC57BE4F14969C9014971596AC914E15B0
:101460005F050CF045C3490D511DE417F5070CF05D
:101470003FC3201731070CF03BC32A0F311D621701
:1014800073070CF035C3FDC189819A81AB81BC81A2
:1014900080839183A283B383F0929D01E0929C01AB
:1014A00010939F0100939E0184E08093A00180939C
:1014B000A1018091A60181110CC3E12CF12C00E067
:1014C00010E08091F5059091F6050817190790F442
:1014D000E091F105F091F205EE0DFF1D628173813F
:1014E000808191810E94AA0F0F5F1F4FE4E0EE0EF2
:1014F000F11CE7CF80E00E94B71880910001909125
:101500000101019719F088E090E002C080E090E0CE
:101510002091780130917901AC014F5F5F4F421704
:1015200053079CF54EE750E0481B590B42175307F1
:1015300064F140917A0150917B01BC01695F7F4F5A
:101540006417750714F56EE370E0DB01A81BB90B97
:10155000A417B507D4F06091F5057091F605E091F8
:10156000F105F091F20581E090E08617970718F5F4
:10157000A481B581A217B30729F4A681B781A41766
:10158000B50719F001963496F0CF28EEE22E23E04D
:10159000F22E01E210E024EF31E043E850E064EF86
:1015A00071E086E091E00E94091682E090E090935D
:1015B0009B0180939A0188E00E943119882331F0C1
:1015C00083E090E090939B0180939A018091960133
:1015D000909197018C32914009F032C198E5E92E43
:1015E00092E0F92E0BE012E026E930E04BE052E009
:1015F00066E970E08BE092E00E94091684E090E0DA
:1016000090939B0180939A011BC11092090610923E
:10161000080680E190E090930B0680930A0682E032
:1016200080930E0687EB92E00E94C61810930E0678
:1016300086EA92E00E94C6188091980190919901E3
:1016400001969093990180939801499724F482E937
:1016500092E00E94C6188091980190919901839719
:1016600024F0109299011092980188E00E9431199B
:10167000882309F4E5C08091960190919701C29664
:10168000909397018093960102E010E0109301017E
:1016900000930001809106019091070102969093BA
:1016A0000701809306018091020190910301019648
:1016B00090930301809302010E94E71864E170E0B7
:1016C00080E090E00E94DC14DC01CB018296A11D39
:1016D000B11D909379018093780162E170E080E020
:1016E00090E00E94DC14DC01CB014C96A11DB11DE1
:1016F0007C0190937B0180937A0110937D0100938C
:101700007C012091F5053091F605232B21F01092F4
:10171000F6051092F50500917801109179011A8370
:1017200009839C838B83CE0101960E94A3186801D4
:10173000E4E0CE1AD10808511109DA82C982FC828C
:10174000EB82CE0101960E94A318F4E0CF1AD108D3
:10175000C016D10691F763E571E085EE95E00E9431
:101760002414882349F080910601909107019093F9
:10177000050180930401BDCC809102019091030189
:101780009093050180930401A7CC2091960130919C
:1017900097018091A2019091A301821793070CF405
:1017A000C9019093A3018093A2011092090610929F
:1017B000080680E190E090930B0680930A0682E091
:1017C00080930E0686E892E00E94C61881E080931E
:1017D0000E0689E792E00E94C618809196019091CA
:1017E00097010E94740F8DE692E00E94C6188091C6
:1017F000A2019091A3010E94740F88E592E00E94DB
:10180000C61888E00E9431198823D1F00E9479041B
:101810000E94230715C080E390E09093090680930F
:10182000080680E290E090930B0680930A0681E51B
:1018300092E00E94C61888E00E943119811159CCAB
:1018400080E00E94B71862C16EE471E0EBCB83E0E8
:1018500090E090937D0180937C0188CD82E090E0C0
:1018600090937D0180937C018ACD10927D0110922E
:101870007C018ECD81E090E090937D0180937C018E
:1018800090CD6CE670E080E090E00E94DC143B01BB
:101890004C0166E270E080E090E00E94DC1494016C
:1018A0008301065F1F4F2F4F3F4FD2010D931C93B3
:1018B000DC01CB014096A11DB11DF201938382830F
:1018C00084E08483858382E3E82EF12C08E811E02C
:1018D00022E330E04AE451E062E370E086E091E028
:1018E0000E94091680919601909197010A96909313
:1018F0009701809396011092A6012091F5053091F1
:10190000F6058091A4019091A50128173907B8F038
:1019100063E571E085EE95E00E942414882331F0A0
:101920008091040190910501029605C08091020109
:1019300090910301049690930501809304012091F6
:10194000F5053091F6058091A4019091A501281725
:10195000390708F473C060919C0170919D0140911A
:101960009E0150919F01F091A10120917E01309143
:101970007F018091800190918101A0918201E0918D
:101980008301B091A0018B010B0F111D20173107AE
:101990000CF054C02A0F311D621773070CF04EC0B3
:1019A0009A012F0F311D821793070CF047C08E0F3D
:1019B000911D481759070CF041C062E3E62EF12C47
:1019C00000E216E022E330E043E952E062E370E037
:1019D0008BE092E00E9409162091F5053091F60502
:1019E000C90101978217930720F49093F60580931D
:1019F000F50563E571E085EE95E00E9424148823E7
:101A000009F47FC0809104019091050120910601A5
:101A100030910701821793070CF473C020910001E5
:101A2000309101012130310519F452E0C52ED12C3D
:101A30008C199D09909305018093040100917A010E
:101A400010917B01E0907801F0907901FA82E982AF
:101A50001C830B832091F5053091F605C901019691
:101A60002817390730F4BE016F5F7F4F0E9431188D
:101A700007C08217930720F49093F6058093F5052D
:101A80002091F5053091F605C9018150904C880FE1
:101A9000991F880F991FBFEFAB1ABB0AAC014450C6
:101AA0005109E091F105F091F205A216B30609F48F
:101AB000EBCCDF01A80FB91FE40FF51F4080518068
:101AC000628073804D925D926D927C921397CA01F1
:101AD000E2CF2091F5053091F605C90101978217F3
:101AE000930708F0EACC9093F6058093F505E5CCD2
:101AF00026E0420E511C06968231910509F09FCCDA
:101B00001ECF809102019091030194CF2C960FB6C5
:101B1000F894DEBF0FBECDBFDF91CF911F910F9123
:101B2000FF90EF90DF90CF90BF90AF909F908F90FD
:101B30007F906F905F904F903F902F900895FC01A1
:101B40008091AE01811103C08FEF9FEF08959FB781
:101B5000F89482E08093E9002091F20030E01216C0
:101B6000130614F421E030E02115310559F02898CE
:101B700084E68093AD018091F10080838091F20032
:101B8000882319F09FBFC90108958BE68093E80070
:101B9000F9CF2FB7F89483E08093E9009091E800A3
:101BA000892F807295FF04C09091F20080E4891B18
:101BB0002FBF08958091B50181110DC082E08093FF
:101BC000B10184E08093B2011092B4011092B3018C
:101BD00081E08093B50181EB91E00895CF93DF938D
:101BE0001F92CDB7DEB76983DC01ED91FC910280D5
:101BF000F381E02D41E050E0BE016F5F7F4F09951A
:101C00000F90DF91CF91089583E08093E900809158
:101C1000F200882319F08AE38093E80008950E9477
:101C2000C90D90E00895CF93DF931F92CDB7DEB733
:101C3000FC018485958597FD05C02FEF3FEF358723
:101C400024870BC0CE0101960E949F0D019719F4C5
:101C5000898190E002C08FEF9FEF0F90DF91CF91CD
:101C600008950F931F93CF93DF931F92CDB7DEB7E5
:101C70008C01FC018485958597FF0EC0CE010196ED
:101C80000E949F0D019719F4298130E002C02FEFC7
:101C90003FEFF80135872487F801848595850F90FB
:101CA000DF91CF911F910F910895FC018485958557
:101CB00097FD0BC09FB7F89482E08093E900809174
:101CC000F2009FBF90E0019608959FB7F89482E0DC
:101CD0008093E9008091F2009FBF90E00895EF9219
:101CE000FF920F931F93CF93DF937C018B01040F1F
:101CF000111DEB0177FF0CC0C0E0D0E009C0C21796
:101D0000D3076CF441E0BE01C7010E944D16219635
:101D10009801013411059CF320E430E0F0CFDF910D
:101D2000CF911F910F91FF90EF9008958F929F9206
:101D3000AF92BF92CF92DF92EF92FF920F931F93D9
:101D4000CF93DF935C016B017A01809113018823AB
:101D500009F45BC08091AE01882309F456C08091DC
:101D6000AC0180FF05C08091E00082608093E000BC
:101D7000E70110E00AEF83E0882E9AE3992E20977E
:101D8000D9F10E94C90D81110AC0015009F43DC06A
:101D900061E070E080E090E00E942515F0CF282FF0
:101DA00030E0C217D3070CF48C2F4FB7F894809211
:101DB000E9009091E80095FF1DC0282F30E0C21B7C
:101DC000D30BF601982F915020F081918093F10070
:101DD000FACFC20ED31E112319F09092E80009C069
:101DE0008091E80085FD06C09092E80011E0209700
:101DF00009F010E04FBFC3CF1111C3CF5D9884E647
:101E00008093B0011E141F0444F081E090E0F501BE
:101E10009383828380E090E001C0C701DF91CF917E
:101E20001F910F91FF90EF90DF90CF90BF90AF90F8
:101E30009F908F900895DF92EF92FF920F931F93E0
:101E4000CF93DF93D82E8A017B01E40EF51EEB01C0
:101E5000CE15DF0571F0D7FE03C0FE01849101C0ED
:101E600088810E94E91321968111F2CF8FEF9FEFB5
:101E700001C0C801DF91CF911F910F91FF90EF90AA
:101E8000DF9008950F931F93CF93DF931F92CDB7E9
:101E9000DEB782E0898342E450E06EE273E080E8DE
:101EA0000E941B0F0E94DA0DDC0112960D911C910D
:101EB00013970115110569F0D801ED91FC9102808D
:101EC000F381E02DBE016F5F7F4FC801099597FF39
:101ED00007C089810F90DF91CF911F910F910895D5
:101EE000F80100851185E5CFCF92DF92EF92FF9246
:101EF000CF93DF936C01990FEE08FF08F7FE1FC028
:101F0000E091F905F091FA050190F081E02D6DE284
:101F100089EF95E00995EC0166277727CB016C19CD
:101F20007D098E099F094AE00E943C198C0F9D1F74
:101F3000DF91CF91FF90EF90DF90CF9008954AE02E
:101F4000C701B601DF91CF91FF90EF90DF90CF9066
:101F50000C943C198F929F92AF92BF92CF92DF92D6
:101F6000EF92FF920F931F93CF93DF93EC018B01BE
:101F70007B0182E0E81AF10845E0B701CE010E943A
:101F80006F0E5E018FEFA81AB80A45E0B701C501D0
:101F90000E946F0E015011094E0182E0880E911CC3
:101FA00043E0B801C4010E946F0E6E0181E0C81ABF
:101FB000D10845E0B701C6010E946F0E229743E0A9
:101FC000B801CE010E946F0E43E0B801C4010E9427
:101FD0006F0E45E0B701C5010E946F0E43E0B801E6
:101FE000CE010E946F0E45E0B701C601DF91CF918F
:101FF0001F910F91FF90EF90DF90CF90BF90AF9027
:102000009F908F900C946F0E1F920F920FB60F92AD
:1020100011248F939F938091E1009091E100937F31
:102020009093E10083FF0FC01092E90091E090933C
:10203000EB001092EC0092E39093ED001092AE0151
:1020400098E09093F00082FF20C093E09093E90025
:102050009091F200992319F09AE39093E8009091FF
:10206000B001992339F09091B00191509093B00153
:10207000992389F19091AD01992339F09091AD01A7
:1020800091509093AD01992341F184FF10C080914C
:10209000E2008E7E81608093E2008091E1008F7E7D
:1020A0008093E1008091AC018E7E806111C080FF41
:1020B00016C08091E2008E7E80618093E200809164
:1020C000E1008E7E8093E1008091AC018E7E816084
:1020D0008093AC0104C05D9ACDCF289AD6CF9F9152
:1020E0008F910F900FBE0F901F9018951F920F9217
:1020F0000FB60F921124CF92DF92EF92FF920F93BF
:102100001F932F933F934F935F936F937F938F937F
:102110009F93AF93BF93EF93FF93CF93DF93CDB78D
:10212000DEB76C97DEBFCDBF1092E9008091E8006A
:1021300083FFFAC168E0CE0145960E94171482EF32
:102140008093E8008D8987FF05C09091E80090FF9B
:10215000FCCF03C09EEF9093E800982F907609F093
:10216000C6C09E892F89188D91110CC0803829F422
:102170008091AB018093F10002C01092F1001092A7
:10218000F10049C1422F50E0512B913051F481119F
:1021900042C14130510509F03EC18091AB018D7FB4
:1021A0000BC0933061F4811136C14130510509F003
:1021B00032C18091AB0182608093AB012CC195301C
:1021C00041F48091E80080FFFCCF20682093E30079
:1021D00022C1963009F05FC0EB8CFC8C1092E900B4
:1021E0001092AA011092A901123091F51092A80143
:1021F0001092A7010E94420F99E0BE016F5F7F4FCE
:10220000DB01E92F1D92EA95E9F799831A8391E0A2
:102210009E8390EA98879AEF99872091A90130913F
:10222000AA01275F3F4F3C832B838D831092E900E7
:102230001092AA011092A901F092A801E092A701C0
:1022400049E050E080E00E941B0F0E94420FE3C073
:10225000F092A801E092A7010E94DA0DDC0112962B
:10226000ED90FC901397E114F10409F4C1C0D7017B
:10227000ED91FC910480F581E02DBE016B5E7F4FF6
:10228000C7010995009719F00CF0C5C0C8C0F70147
:10229000E084F184E8CF973009F4C1C0983021F48C
:1022A00081E08093F100B7C0993009F0B4C0837029
:1022B00009F0B5C0EFE1F1E081E021E036E3908183
:1022C000992361F08093E9002093EB009191909322
:1022D000EC003093ED008F5F873089F78EE78093B5
:1022E000EA001092EA008F898093AE0194C08B8D32
:1022F0009C8D1092E9001092AA011092A90190936E
:10230000A8018093A701898D811159C08E899D896B
:10231000913A59F4813209F082C047E050E06CE014
:1023200071E080E00E941B0F76C0913209F077C007
:10233000833289F4888D90E0982F88272F89822B0B
:10234000A0E0B0E08093080190930901A0930A01F6
:10235000B0930B0160C0803269F48091E80082FF85
:10236000FCCF67E08CE091E00E9417148BEF809324
:10237000E80051C0823209F04EC08F89809313016A
:10238000EEEFFFE7859194918B3F9C4D19F4EEEFB2
:10239000FAE002C0E0E0F8E080910C0190910D01BC
:1023A000A0910E01B0910F01803B9440A105B105B1
:1023B00009F079C08091130180FF95C074C00E941C
:1023C000DA0DFC01028113810115110541F1D801DB
:1023D000ED91FC910190F081E02DBE016B5E7F4F8D
:1023E000C8010995811117C0F80100851185ECCF4E
:1023F000113009F44EC0133091F48F89882309F409
:1024000045C0823081F440E867E082E993E00E94B1
:102410008D19882321F08EEF8093E80085C081E23A
:102420008093EB0081C0813029F440E86BE086E8BE
:1024300093E0EDCF833099F70E94DA0DDC0112961C
:10244000ED90FC9013978E010F5F1F4F6801E11410
:10245000F10479F0D701ED91FC910680F781E02D30
:10246000B801C7010995080F111DF701E084F18437
:10247000EECFD8011C92F60101900020E9F73197C8
:10248000BF016C197D0940E0C601C1CF60E773E070
:1024900002C064E773E06115710509F2FB01449124
:1024A00050E080E83FCF808191818737974709F0DE
:1024B000B2CFA89580916000886180936000809180
:1024C000AF0180936000EE3FBAE0FB0739F08091E6
:1024D000FE0A9091FF0A918380839DCF1092FF0A9C
:1024E0001092FE0A98CFEE3F8AE0F80751F0808103
:1024F00091818737A7E79A0721F09093FF0A80938D
:10250000FE0A87E797E7918380838091600080933C
:10251000AF019BE088E10FB6F894A8958093600026
:102520000FBE9093600077CF6C960FB6F894DEBF25
:102530000FBECDBFDF91CF91FF91EF91BF91AF91D2
:102540009F918F917F916F915F914F913F912F91CB
:102550001F910F91FF90EF90DF90CF900F900FBEE3
:102560000F901F901895CF92DF92EF92FF920F93EA
:102570001F93CF93DF936C017A018B01C0E0D0E011
:10258000CE15DF0589F0D8016D918D01D601ED9151
:10259000FC910190F081E02DC6010995892B11F481
:1025A0007E0102C02196ECCFC701DF91CF911F9130
:1025B0000F91FF90EF90DF90CF9008958091C90127
:1025C000E091C701F091C801882349F0CF0102963C
:1025D0009093C8018093C701859194910895CF018C
:1025E00002969093C8018093C701808191810895DC
:1025F000CF92DF92EF92FF920F931F93CF93DF93CF
:102600000E94DE12811520E8920761F4809171002A
:102610008D7F809371001092910046984798109298
:10262000C6018BC021E02093C601813020E89207CB
:1026300051F48091C4019091C5019093C801809399
:10264000C7010E94DE1297FD05C02091C30122231D
:1026500009F43FC02091C20121113BC021E0209329
:10266000CA01EC01DF77209769F481E08093CB0108
:1026700046983FE9C32E3FE0D32EE12CF12CCAEF60
:10268000D0E014C08E0120E030E060E472E48FE01E
:1026900090E0A90198010E94921B69017A0181E0F2
:1026A000C81AD108E108F1081092CB01E091E305C6
:1026B000F091E4050995811103C081E08093CB017D
:1026C0008091CA018823B9F18091CB01811133C077
:1026D00003C01092CA01C5CF46992DC0479A0E94E7
:1026E000DE12009771F09C01DE010E941D1CDC01CE
:1026F000CB0129E0B595A795979587952A95D1F7B0
:1027000003C08FEF9FEFDC01109290002AE020932E
:102710009100D0929900C09298008093CC01909340
:10272000CD01A093CE01B093CF0180917100826062
:102730008093710002C04798D2CFDF91CF911F9153
:102740000F91FF90EF90DF90CF9008958091BD01A1
:1027500008950895089580E090E008950E94511E24
:102760000F931F93CF93DF93EC018881998100979A
:1027700029F02A813B812617370788F48B016F5F88
:102780007F4F0E94871D009761F0998388831B8388
:102790000A832C813D81232B11F4FC01108281E0FE
:1027A00001C080E0DF91CF911F910F910895CF93E9
:1027B000DF93EC0188819981009711F00E94EF1C52
:1027C000198218821D821C821B821A82DF91CF918E
:1027D00008954091A9015091AA012091A70130913B
:1027E000A80142175307B4F49091E8009570E1F303
:1027F0009091E80092FD19C08093F1008091A901A9
:102800009091AA0101968F739927892B19F48EEF65
:102810008093E8008091A9019091AA01019690937C
:10282000AA018093A90181E0089580E00895615094
:1028300030F02091F100FC0120830196F8CF289818
:1028400084E68093AD010895FC0124813581232B1A
:1028500031F421E061157105A1F0FB0108C0FC0114
:10286000808191816115710531F421E0FC01808145
:10287000882339F005C00E945F1E21E0892B09F0F2
:1028800020E0822F0895EF92FF920F931F93CF9332
:10289000DF93EC01FB0184819581E080F1800C8164
:1028A0001D81E114F104B1F00097B9F0080F191F70
:1028B000B801CE010E94B013882361F028813981CC
:1028C0008C819D81B701820F931F0E94681E1D831A
:1028D0000C8303C0CE010E94D713CE01DF91CF91AC
:1028E0001F910F91FF90EF900895EF92FF920F9339
:1028F0001F93CF93DF938C017B016115710569F004
:10290000FB0101900020E9F73197EF01C61BD70BBF
:10291000BE010E94B013811104C0C8010E94D713E8
:1029200008C0F801D583C483B701808191810E94DA
:10293000681EC801DF91CF911F910F91FF90EF901A
:102940000895EF92FF920F931F93CF93DF93EC01C3
:10295000198218821B821A821D821C8261157105E0
:1029600021F18B01FB0101900020E9F731977F01F4
:10297000E61AF70AB7010E94B013811109C0CE010F
:10298000DF91CF911F910F91FF90EF900C94D7138F
:10299000FD82EC82B80188819981DF91CF911F91EE
:1029A0000F91FF90EF900C94681EDF91CF911F91D3
:1029B0000F91FF90EF900895CF93DF9300D000D058
:1029C000CDB7DEB7611571058105910579F09B01E1
:1029D000AC0169833A834B835C830E946E1B29811F
:1029E0003A814B815C810E94921B03C060E070E0E1
:1029F000CB010F900F900F900F90DF91CF91089522
:102A00003FB7F8948091D1019091D201A091D30168
:102A1000B091D40126B5A89B05C02F3F19F00196AF
:102A2000A11DB11D3FBFBA2FA92F982F8827820F54
:102A3000911DA11DB11DBC01CD0142E0660F771FA4
:102A4000881F991F4A95D1F708958F929F92AF9250
:102A5000BF92CF92DF92EF92FF926B017C010E94B6
:102A600000154B015C01C114D104E104F104F1F043
:102A70000E940015DC01CB0188199909AA09BB093C
:102A8000883E9340A105B10570F321E0C21AD10838
:102A9000E108F10888EE880E83E0981EA11CB11CA5
:102AA000C114D104E104F10419F7DDCFFF90EF90D8
:102AB000DF90CF90BF90AF909F908F9008951F921E
:102AC0000F920FB60F9211242F933F938F939F93E2
:102AD000AF93BF938091BE019091BF01A091C001BF
:102AE000B091C1013091D00123E0230F2D3720F4A4
:102AF0000196A11DB11D05C026E8230F0296A11D58
:102B0000B11D2093D0018093BE019093BF01A0938B
:102B1000C001B093C1018091D1019091D201A091E7
:102B2000D301B091D4010196A11DB11D8093D101B3
:102B30009093D201A093D301B093D401BF91AF91F0
:102B40009F918F913F912F910F900FBE0F901F90EB
:102B500018951F920F920FB60F9211242F933F9347
:102B60004F935F936F937F938F939F93AF93BF9395
:102B7000EF93FF938091CC019091CD01A091CE0174
:102B8000B091CF01892B8A2B8B2B81F18091CB01C6
:102B900081110BC098B180E4892788B98091CA015E
:102BA000882319F088B1805888B98091CC01909120
:102BB000CD01A091CE01B091CF01181619061A06C9
:102BC0001B06B4F48091CC019091CD01A091CE016F
:102BD000B091CF010197A109B1098093CC019093E5
:102BE000CD01A093CE01B093CF0102C00E94F81294
:102BF000FF91EF91BF91AF919F918F917F916F91D5
:102C00005F914F913F912F910F900FBE0F901F90AA
:102C10001895EF92FF920F931F93DC01E1E7F0E02C
:102C200090819D7F90831092C901E5EDF5E0F093CE
:102C3000C801E093C701F093C501E093C401B183DB
:102C4000A0837383628355834483378326831187EC
:102C50000087F386E2861F910F91FF90EF900C940E
:102C6000F8122D9A0895BC0180E090E00C9425158F
:102C70008FB18095807F669B88601C9B84600895DF
:102C80001092BD013E983F9808953E9A3F9A81E088
:102C90008093BD0108950C947C1B80389105B8F495
:102CA00060347105A0F490E121E061FD24E060FD55
:102CB000220F62FD2295687F969FD0011124A80FF4
:102CC000AB52BE4F8C91822B40FF82278C9308958C
:102CD0002F923F924F925F926F927F928F929F922C
:102CE000AF92BF92CF92DF92EF92FF920F931F931A
:102CF000CF93DF93CDB7DEB727970FB6F894DEBF3B
:102D00000FBECDBFFC016A3069F4258981899289A3
:102D100038E0239F800D911D1124928B818B108AA6
:102D200017869EC06D3009F49BC09F838E833588C3
:102D30002489298333893A8361887288E784F088FB
:102D400080E8E816F104C4F0AE81BF8155962C915D
:102D50005597422F50E01F968D919C915097B6E069
:102D60002B9F800D911D1124EE81FF81908B878711
:102D7000268921115FC074C0F0E46F16710424F736
:102D8000C70125E0329E800D911D112418161906E9
:102D9000DCF6432C512CC30138E0339E800D911D8D
:102DA00011241816190684F685E0689F8001112405
:102DB00006561C4F20E0F8012490253009F4212C00
:102DC000430158E020FC02C0398101C03A81311131
:102DD0000BC0F9818A81F81307C026945150840CE6
:102DE000951C5111EFCF1DC067018C2D8E198315D5
:102DF000A0F754018A2D8819831578F4432FB50163
:102E0000C6012C833B835D830E944D169FEFA91A58
:102E1000B90A5D813B812C81EDCFAFEFCA1ADA0A86
:102E2000E4CF2F5FE40CF51C0F5F1F4F263009F035
:102E3000C2CF8ACF6AEF64039001659F300D1124E1
:102E400020583F4F281739075CF4AE81BF81ED91C0
:102E5000FC9111970190F081E02D6AE0CD01099578
:102E600081E090E027960FB6F894DEBF0FBECDBF8D
:102E7000DF91CF911F910F91FF90EF90DF90CF9056
:102E8000BF90AF909F908F907F906F905F904F908A
:102E90003F902F9008954F925F927F928F929F92D2
:102EA000AF92BF92CF92DF92EF92FF920F931F9358
:102EB000CF93DF9300D000D0CDB7DEB7DC01411552
:102EC000510509F4BAC0FA01D490319634914D2CD1
:102ED000512C5C01A40CB51C1A141B040CF0ADC0E1
:102EE000803891050CF0A9C0CB01830F911D1816F5
:102EF00019060CF0A2C0603471050CF09EC0F62FCC
:102F0000F770EF2ECB0177FD079623E09595879517
:102F10002A95E1F7F82F77FF04C0EE2011F0FFEFBC
:102F2000F80FB7FF05C0662777276A1B7B0B02C027
:102F300060E070E000E8A016B10424F080E8F82E0C
:102F4000FA1A01C0FD2CF61AAF2E0F2E000CBB088A
:102F5000FF3F1CF4CA2CC09401C0C12C91E0832F08
:102F6000877009F490E0369536953695930FA90E43
:102F7000B11C19E0A116B10414F098E09F1B8C2D30
:102F80008F0F9D01082F10E80103200D311D112422
:102F9000260F371F4E5F5F4FCD9C600D711D1124B2
:102FA000460F571F61E070E00E2C02C0660F771FBE
:102FB0000A94E2F7EFEFE69FD001E79FB00D1124EE
:102FC000A095B095BC83AB837C809F0F8917A9F136
:102FD000F901EB52FE4F6F01A12CB12CAF1438F563
:102FE000FA01EA0DFB1DE491E69F4001E79F900C7A
:102FF00011249A82898287FD07C0F6011081E12F92
:10300000EA238E2AF6018082EE2051F0873044F4C4
:10301000F601E058FF4F908097208A809828908290
:10302000FFEFAF1ABF0A0FEFC01AD00AD7CF8F5FDA
:10303000440D551D20583F4FC9CF0F900F900F9052
:103040000F90DF91CF911F910F91FF90EF90DF9044
:10305000CF90BF90AF909F908F907F905F904F9058
:103060000895EF92FF920F931F93CF93DF93EC019C
:103070008B018091F3059091F4058C179D07B8F5AD
:103080009E01285F3F4F8217930788F5E090F10576
:10309000F090F2053093F4052093F305C901880FF1
:1030A000991F880F991F0E945A1C8093F1059093D5
:1030B000F205D701FC0120E030E08091F505909108
:1030C000F6052817390780F4309749F04D915D9146
:1030D0006D917C91139740835183628373832F5F3B
:1030E0003F4F14963496E9CFC7010E94EF1C8091A0
:1030F000F5059091F6059C01220F331F220F331F17
:103100008C179D07A8F4E091F105F091F205E20F0C
:10311000F31F309749F0D8014D915D916D917C91ED
:10312000408351836283738301962C5F3F4FE8CFC6
:10313000D093F605C093F505DF91CF911F910F91C4
:10314000FF90EF900895BC012091F5053091F605B0
:10315000C90101962817390710F40C943118821709
:10316000930720F49093F6058093F5050895E5ED17
:10317000F1E0A0E0B8E000800EBC8111012C1197B5
:10318000A0FDFDCF0192B9F70DB408950F931F93E1
:10319000CF93DF938C01C0E0D0E0F801EC0FFD1F6E
:1031A0006491662371F0E091F905F091FA050190C0
:1031B000F081E02D89EF95E00995892B11F021969A
:1031C000ECCFCE01DF91CF911F910F9108950F9316
:1031D0001F93CF93DF93809164008E7F8093640070
:1031E00080917A00806480937A0080917A0086FDD5
:1031F000FCCFC0917800D09179000E9400158E011B
:1032000020E030E0980111270027600F711F821F16
:10321000931F209164002160209364006115710563
:103220008105910531F0DF91CF911F910F910C94A1
:10323000731BDF91CF911F910F91089580E0E5ED11
:10324000F1E081118FEF0024819381938193819329
:103250000394D1F7E9EFF5E0128A118A108A1786F4
:10326000089520910306282329F4909102069823BB
:1032700081E009F480E008958F929F92AF92BF920F
:103280000F931F93CF93DF93CDB7DEB7A1970FB600
:10329000F894DEBF0FBECDBF19A2423008F44AE059
:1032A0008E010F5D1F4F842E912CA12CB12CA501F6
:1032B00094010E94FB1BE62FB901CA0101501109BC
:1032C000EA3014F4E05D01C0E95CD801EC93232BF3
:1032D000242B252B61F70115110571F0F8010190E0
:1032E0000020E9F73197AF01401B510BB80189EF7E
:1032F00095E00E94B31202C080E090E0A1960FB664
:10330000F894DEBF0FBECDBFDF91CF911F910F911B
:10331000BF90AF909F908F900895CF92DF92EF92E1
:10332000FF920F931F93CF93DF931F92CDB7DEB71A
:10333000182F062FE42E862F880F8E5F99830E9408
:10334000E91383E00E94E913F12EC12E9981D92E51
:103350008C2D8F19801798F4F601E7FE02C0849136
:1033600001C080810E94E913182F80E00E94E913B8
:103370008123FFEFCF1ADF0A8111EACF01C081E07C
:103380000F90DF91CF911F910F91FF90EF90DF9001
:10339000CF900895789484B5826084BD84B58160AF
:1033A00084BD85B5826085BD85B5816085BD809110
:1033B0006E00816080936E00109281008091810088
:1033C0008260809381008091810081608093810080
:1033D0008091800081608093800080919100826064
:1033E0008093910080919100816080939100809101
:1033F00090008160809390008091C10084608093F0
:10340000C1008091C10082608093C1008091C100A1
:1034100081608093C1008091C30081608093C3006C
:103420008091C00082608093C0008091C200816062
:103430008093C20080917A00846080937A008091AA
:103440007A00826080937A0080917A008160809314
:103450007A0080917A00806880937A001092AE01A1
:103460001092AB011092AC018091D70081608093E3
:10347000D70080EA8093D80089B5806189BD89B57D
:10348000826089BD09B400FEFDCF61E070E080E09C
:1034900090E00E9425158091D8008F7C80618093F8
:1034A000D8008091E000807F8093E0008091E1006F
:1034B0008E7E8093E1008DE08093E200559A209A01
:1034C0000E947904C0E0D0E00E9423072097E1F336
:1034D0000E940000F9CF0F931F93CF93DF938C01CD
:1034E00081E090E00E944B1680FF32C08AE090E0BD
:1034F0000E944B169FEF980F9E3F50F522E330E05D
:10350000D80150963C932E931F9728E330E05296B3
:103510003C932E935197CBE0D0E0D801ED91FC91F4
:103520000190F081E02D682FC8010995CE010E941D
:103530004B162196C131D10581F780E00E94B71862
:1035400088EE93E0DF91CF911F910F910C94331689
:10355000DF91CF911F910F91089504970C946B1AEE
:103560008091E5059091E6050E94EF1C8091EB05A6
:103570009091EC050E94EF1C8091F1059091F2056D
:103580000C94EF1CCF93DF93E0E1F6E013821282FC
:1035900088EE93E0A0E0B0E084839583A683B783B0
:1035A00089E291E0918380838FEF9FEF95878487F5
:1035B000E9EFF5E0138212821186128680E183879B
:1035C0001086178215868BE391E09183808389E4CE
:1035D00091E095838483108A1786128A118A81E08C
:1035E000838B148A858B168A86EA93E19093E4058F
:1035F0008093E30580E090E89093E2058093E105F5
:1036000046983E9A47983F9AC1EFD5E088E090E00F
:103610009B838A831D821C8280E290E00E945A1C58
:10362000998388836BE471E08BEE95E00E94A1148E
:1036300063E571E085EE95E0DF91CF910C94A114E4
:103640008F929F92AF92BF92CF92DF92EF92FF92B2
:10365000CF93DF93EC01688179818A819B81611529
:1036600071058105910521F464E279ED8BE597E020
:103670002DE133EF41E050E00E94921B49015A01D5
:103680009B01AC01A7EAB1E40E94B11B6B017C0174
:10369000ACEEB4EFA50194010E94BF1BDC01CB018D
:1036A0008C0D9D1DAE1DBF1DB7FF03C00197A10965
:1036B000B04888839983AA83BB83BC01CD019F77DF
:1036C000DF91CF91FF90EF90DF90CF90BF90AF90C0
:1036D0009F908F9008950E94201B089584E191E0AF
:1036E0000E94201B0895609314017093150180932C
:1036F0001601909317010895F999FECF92BD81BDEF
:10370000F89A992780B50895262FF999FECF1FBA08
:1037100092BD81BD20BD0FB6F894FA9AF99A0FBEFA
:1037200001960895052E97FB1EF400940E94A91B94
:1037300057FD07D00E94FB1B07FC03D04EF40C94EE
:10374000A91B50954095309521953F4F4F4F5F4FA6
:10375000089590958095709561957F4F8F4F9F4FFD
:1037600008950E941D1CA59F900DB49F900DA49FCD
:10377000800D911D11240895B7FF0C94B11B0E9478
:10378000B11B821B930B08952F923F924F925F9231
:103790006F927F928F929F92AF92BF92CF92DF9261
:1037A000EF92FF920F931F93CF93DF93CDB7DEB7C6
:1037B000CA1BDB0B0FB6F894DEBF0FBECDBF09945A
:1037C0002A88398848885F846E847D848C849B84B1
:1037D000AA84B984C884DF80EE80FD800C811B81BF
:1037E000AA81B981CE0FD11D0FB6F894DEBF0FBEEE
:1037F000CDBFED010895A1E21A2EAA1BBB1BFD014E
:103800000DC0AA1FBB1FEE1FFF1FA217B307E407BF
:10381000F50720F0A21BB30BE40BF50B661F771F17
:10382000881F991F1A9469F76095709580959095F7
:103830009B01AC01BD01CF010895A29FB001B39FD0
:10384000C001A39F700D811D1124911DB29F700DA9
:10385000811D1124911D0895AA1BBB1B51E107C0B6
:10386000AA1FBB1FA617B70710F0A61BB70B881F10
:10387000991F5A95A9F780959095BC01CD0108959F
:1038800097FB072E16F4009407D077FD09D00E940D
:103890002C1C07FC05D03EF4909581959F4F089510
:1038A000709561957F4F0895EE0FFF1F0590F4917D
:1038B000E02D0994CF93DF938230910510F482E0DC
:1038C00090E0E0916206F091630620E030E0C0E015
:1038D000D0E0309711F14081518148175907C0F06D
:1038E0004817590761F482819381209719F09B83CF
:1038F0008A832BC0909363068093620626C02115AD
:10390000310519F04217530718F49A01BE01DF017F
:10391000EF010280F381E02DDCCF2115310509F1A3
:10392000281B390B2430310590F412968D919C910F
:1039300013976115710521F0FB019383828304C005
:103940009093630680936206FD01329644C0FD01A8
:10395000E20FF31F81939193225031092D933C93F1
:103960003AC02091600630916106232B41F42091EA
:103970001A0130911B01309361062093600620915B
:103980001801309119012115310541F42DB73EB7C9
:1039900040911C0150911D01241B350BE0916006E4
:1039A000F0916106E217F307A0F42E1B3F0B2817D6
:1039B000390778F0AC014E5F5F4F2417350748F0A8
:1039C0004E0F5F1F50936106409360068193919361
:1039D00002C0E0E0F0E0CF01DF91CF9108950F93B6
:1039E0001F93CF93DF93009709F48CC0FC013297AB
:1039F000138212820091620610916306011511056F
:103A000081F420813181820F931F209160063091D3
:103A100061062817390779F5F0936106E09360068F
:103A200071C0D80140E050E0AE17BF0750F41296C5
:103A30002D913C911397AD012115310509F1D90163
:103A4000F3CF9D01DA013383228360817181860F78
:103A5000971F8217930769F4EC0128813981260F9B
:103A6000371F2E5F3F4F318320838A819B81938351
:103A70008283452B29F4F0936306E093620642C0EB
:103A80001396FC93EE931297ED01499159919E0183
:103A9000240F351FE217F30771F480819181840FA1
:103AA000951F029611969C938E9382819381139613
:103AB0009C938E931297E0E0F0E0D80112968D91DE
:103AC0009C911397009719F0F8018C01F6CF8D9116
:103AD0009C9198012E5F3F4F820F931F20916006AB
:103AE000309161062817390769F4309729F410924C
:103AF00063061092620602C013821282109361065E
:103B000000936006DF91CF911F910F910895A0E07F
:103B1000B0E0EDE8FDE10C94C81BEC01009721F446
:103B2000CB010E945A1CB8C0FC01E60FF71F9C0194
:103B300022503109E217F30708F4ACC0D9010D9106
:103B40001C91119706171707B0F00530110508F4FE
:103B50009FC0C80104978617970708F499C00250C0
:103B60001109061B170B019311936D937C93CF01E1
:103B70000E94EF1C8DC05B01A01AB10A4C01800E9F
:103B8000911EA0916206B091630640E050E0E12CE6
:103B9000F12C109709F44AC0A815B905D1F56D901C
:103BA0007C901197630182E0C80ED11CCA14DB041B
:103BB00080F1A3014A195B096A0182E0C80ED11C99
:103BC0001296BC9012971396AC91B5E0CB16D10427
:103BD00040F0B282A38351834083D9016D937C93DB
:103BE0000AC00E5F1F4FC301800F911FF90191831F
:103BF0008083EB2DFA2FE114F10431F0D7011396F5
:103C0000FC93EE93129744C0F0936306E093620630
:103C10003FC08D919C9111974817590708F4AC014A
:103C20007D0112960D90BC91A02DB3CF80916006BE
:103C30009091610688159905E1F446175707C8F475
:103C40008091180190911901009741F48DB79EB7AA
:103C500040911C0150911D01841B950BE817F90739
:103C6000C8F4F0936106E0936006F9017183608304
:103C70000FC0CB010E945A1C7C01009759F0A8018B
:103C8000BE010E94561ECE010E94EF1CC70104C057
:103C9000CE0102C080E090E0CDB7DEB7EEE00C943C
:103CA000E41B81E090E0F8940C946F1EFB01DC01B2
:103CB00002C001900D9241505040D8F70895FB0189
:103CC000DC018D91019080190110D9F3990B0895B1
:103CD000FB01DC0101900D920020E1F7089514E052
:103CE000CEE4D4E004C0FE010E94541C2196CF34DF
:083CF000D107C9F7F894FFCFDA
:103CF80001000E0010001000FFFFFFFF00E10000B0
:103D0800000000000100000000006406800000C1FF
:103D1800808100000000000000EE0D960E0F0E04DA
:103D28000E550E130E310E000000006816B312ABCC
:103D380013AA136B1AFCFF0000AD1A6F6E006561C1
:103D48007379006E6F726D616C006F666600476113
:103D58006D65204D6F64653A20000A42202D20537E
:083D68006F756E643A20000043
:00000001FF
